:100000000C946D000C94B50F0C94DC0F0C949500BF
:100010000C9495000C9495000C9495000C9495000C
:100020000C9495000C9495000C9495000C949500FC
:100030000C9495000C9495000C9495000C949500EC
:100040000C9403100C9495000C942F130C946113D2
:100050000C9495000C9495000C9495000C949500CC
:100060000C94670E0C9495002F0232023502380270
:100070003B023E024102440200000008000201006F
:100080000003040700000000000000000102040853
:1000900010204080010204081020010204081020F2
:1000A000040404040404040402020202020203031E
:1000B00003030303000000002300260029000000C2
:1000C0000000250028002B0000000000240027006D
:1000D0002A003D06E30D9113BF0611241FBECFEF8A
:1000E000D8E0DEBFCDBF12E0A0E0B1E0E0E5F2E392
:1000F00002C005900D92AC30B107D9F723E0ACE017
:10010000B2E001C01D92AB3FB207E1F710E0C8EDCD
:10011000D0E004C02297FE010E948916C23DD1079B
:10012000C9F70E94D5130C941B190C940000089574
:1001300086E090E0909361028093600208956AE007
:1001400071E08AE593E00C943D146FE171E08AE57B
:1001500093E00E943D1483E090E0909361028093CD
:10016000600208956BE271E08AE593E00E943D141D
:1001700081E090E09093610280936002089569E3CA
:1001800071E08AE593E00E943D1482E090E0909354
:10019000610280936002089569E471E08AE593E06A
:1001A0000E943D1485E090E090936102809360028C
:1001B0000895CF93DF93CDB7DEB728970FB6F894A5
:1001C000DEBF0FBECDBF87E892E00E94470A832FB3
:1001D000492F50E0509315024093140230E03093C1
:1001E00019022093180290E0909317028093160250
:1001F00028960FB6F894DEBF0FBECDBFDF91CF912A
:1002000008956091140287E892E00C94D00920E0F0
:10021000409116026091180287E892E00E94D90985
:100220008FEF9FEF90938602809385020895EF925F
:10023000FF920F931F93CF93DF931F92CDB7DEB73B
:100240007C01FC0100811181C80169830E94BE18F4
:100250006981681719F0C8010E94C618C7010F907C
:10026000DF91CF911F910F91FF90EF900895CF9361
:10027000DF9300D0CDB7DEB76091140282E090E04A
:100280009A838983CE0101960E941701609118021A
:100290001A821982CE0101960E94170160911602FE
:1002A00081E090E09A838983CE0101960E94170134
:1002B000609114027091150286E292E00E94F106AC
:1002C000609118027091190286E292E00E94F50690
:1002D000609116027091170286E292E00E94F90680
:1002E00069E571E08AE593E00E943014609118029C
:1002F000709119024AE050E08AE593E00E94F214FE
:1003000060E671E08AE593E00E9430146091160285
:10031000709117024AE050E08AE593E00E94F214DF
:100320000F900F90DF91CF91089589E692E00E949F
:10033000790789E692E00E949607882331F062E609
:1003400071E08AE593E00E943D1480E792E00E940C
:100350006907882331F061E070E08BE192E00E9450
:100360005F0B87E792E00E946907882331F062E023
:1003700070E08BE192E00E945F0B8EE792E00E94BA
:100380006907882331F063E070E08BE192E00E941E
:100390005F0B86E292E00E940107882319F064E077
:1003A00070E002C065E070E08BE192E00E945F0BBC
:1003B0008BE192E00C94000C80E192E00C94440CF0
:1003C0000F931F93CF93DF93CDB7DEB72C970FB664
:1003D000F894DEBF0FBECDBF8C014AE06A307105D4
:1003E000F4F4CE0107960E94ED156CE671E0CE01A3
:1003F00001960E949F15BE01695F7F4FCE01019655
:100400000E944516BC01C8010E94CC15CE01019680
:100410000E943115CE0107960E94311502C00E943C
:10042000ED15C8012C960FB6F894DEBF0FBECDBFF8
:10043000DF91CF911F910F910895242F462FBC017A
:1004400080E192E00C940D0DCF93DF93EC016830C6
:100450007105F8F4FB01EC5CFF4F0C9487166EE617
:1004600071E014C061E771E011C064E771E00EC093
:1004700067E771E00BC06AE771E008C06DE771E003
:1004800005C060E871E002C063E871E0CE010E943F
:100490009F15CE01DF91CF9108950F931F93CF93B6
:1004A000DF9300D000D000D0CDB7DEB7062F142FD9
:1004B000682F70E0CE0101960E94240269817A8142
:1004C00020E040E080E192E00E940D0DCE01019617
:1004D0000E94311520E042E06DEB71E080E192E096
:1004E0000E940D0D602F70E0CE0101960E94E00188
:1004F00069817A8120E043E080E192E00E940D0D65
:10050000CE0101960E94311520E045E060E671E0E1
:1005100080E192E00E940D0D612F70E0CE01019606
:100520000E94E00169817A8120E046E080E192E06A
:100530000E940D0DCE0101960E94311526960FB630
:10054000F894DEBF0FBECDBFDF91CF911F910F9109
:100550000895CF93DF93CDB7DEB728970FB6F89401
:10056000DEBF0FBECDBF87E892E00E94470A892F09
:10057000E32FF0E0A0918502B0918602EA17FB0715
:1005800081F0F0938602E0938502432F622F289634
:100590000FB6F894DEBF0FBECDBFDF91CF910C94A4
:1005A0004D0228960FB6F894DEBF0FBECDBFDF9187
:1005B000CF9108958FEF9FEF9093860280938502ED
:1005C0000C94A9020F931F93CF93DF93CDB7DEB79F
:1005D00028970FB6F894DEBF0FBECDBF0E94A902C8
:1005E00087E892E00E94470A692F032F10E080916C
:1005F0001102909112020817190761F0422F50E082
:1006000070E0980186E292E00E94D20610931202F6
:100610000093110228960FB6F894DEBF0FBECDBF2F
:10062000DF91CF911F910F91089566E871E08AE5FF
:1006300093E00E943D140E94A90210926102109260
:100640006002089540911602609118028091140290
:100650000C944D02CF93DF9300D000D000D0CDB7E3
:10066000DEB763E971E08AE593E00E943D1482E021
:1006700090E00E94BE1890E09093150280931402BF
:1006800080E090E00E94BE1890E090931902809361
:10069000180281E090E00E94BE1890E0909317024B
:1006A000809316026DEA71E08AE593E00E943014AF
:1006B0006091140270911502CE0101960E942402ED
:1006C000BE016F5F7F4F8AE593E00E942214CE0146
:1006D00001960E9431156DEB71E08AE593E00E946E
:1006E000301460911802709119024AE050E08AE5D6
:1006F00093E00E94F21460E671E08AE593E00E94C4
:10070000301460911602709117024AE050E08AE5B9
:1007100093E00E94FA1440911602609118028091B1
:1007200014020E944D0284E090E090936102809355
:10073000600226960FB6F894DEBF0FBECDBFDF91E4
:10074000CF910895AF92BF92CF92DF92EF92FF9236
:100750000F931F93CF93DF93B82EA62E8A01E90142
:100760000E944D10C0900C02D0900D02E0900E023D
:10077000F0900F029B01AC012C193D094E095F0955
:1007800069017A0134EFC31631E0D306E104F104C4
:1007900020F420911302222359F160930C027093EC
:1007A0000D0280930E0290930F0280911A0288230B
:1007B00061F0F801608171812A2D4B2D80E192E07A
:1007C0000E940D0D10921A020AC02A2D4B2DBE0157
:1007D00080E192E00E940D0D81E080931A028091E9
:1007E0001302882329F01092130281E080931A02E9
:1007F000DF91CF911F910F91FF90EF90DF90CF90FD
:10080000BF90AF900895CF93DF9300D000D000D079
:10081000CDB7DEB70E94A90263EB71E0CE0101966D
:100820000E949F1529EB31E0AE014F5F5F4F60E002
:1008300070E08AE090E00E94A203CE0101960E943F
:10084000311589E692E00E946907882391F06FEBE9
:1008500071E08AE593E00E943D1486E292E00E94F6
:10086000FD0640E050E06AE070E089EB91E00E9414
:100870001D0282E692E00E946907882391F086E2D9
:1008800092E00E94040769EC71E08AE593E00E941F
:100890003D1440E050E06AE070E089EB91E00E9496
:1008A0001D0226960FB6F894DEBF0FBECDBFDF91B6
:1008B000CF910895CF93DF9300D000D000D0CDB773
:1008C000DEB76091140270911502CE0101960E946C
:1008D00024022CEB31E0AE014F5F5F4F60E070E02F
:1008E00080E090E00E94A203CE0101960E943115A3
:1008F00026960FB6F894DEBF0FBECDBFDF91CF9125
:100900000895CF93DF9300D000D000D0CDB7DEB7ED
:100910006091180270911902CE0101960E94E001C7
:100920002CEB31E0AE014F5F5F4F60E070E083E0A1
:1009300090E00E94A203CE0101960E9431152696F6
:100940000FB6F894DEBF0FBECDBFDF91CF910895F3
:10095000CF93DF9300D000D000D0CDB7DEB7609149
:10096000160270911702CE0101960E94E0012CEB55
:1009700031E0AE014F5F5F4F60E070E086E090E0F5
:100980000E94A203CE0101960E94311526960FB651
:10099000F894DEBF0FBECDBFDF91CF91089560E028
:1009A00082E00E94131160E084E00E94131161E074
:1009B00082E00E944C1161E084E00E944C1143E00F
:1009C00050E061EC75E080E00C94950F0F931F935D
:1009D000CF93DF93CDB7DEB72A970FB6F894DEBF7B
:1009E0000FBECDBF26E040E855E260E070E08AE54A
:1009F00093E00E94CD1287E892E00E94D3070E9404
:100A0000DC010E94CF0409ED10E021E030E044E574
:100A100052E06AE572E08BE192E00E94CB0A0AEDB7
:100A200012E023E030E04EE452E064E572E08BE156
:100A300092E00E94CB0A23E030E048E452E06EE40A
:100A400072E08BE192E00E94CB0A23E030E04AE5BD
:100A500052E068E472E08BE192E00E94CB0A02E28D
:100A600013E022E030E042E452E06AE572E08BE11C
:100A700092E00E94CB0A23E030E04CE352E062E4D3
:100A800072E08BE192E00E94CB0A23E030E046E383
:100A900052E06CE372E08BE192E00E94CB0A0AED37
:100AA00012E023E030E04AE552E066E372E08BE1D9
:100AB00092E00E94CB0A00E010E024E030E040E346
:100AC00052E06AE572E08BE192E00E94CB0A25E0F9
:100AD00030E04AE552E060E372E08BE192E00E9490
:100AE000CB0A80E090E00E94BE18082F81E090E0E1
:100AF0000E94BE18182F82E090E00E94BE18202F9E
:100B000030E0412F50E0682F70E0CE0101960E9446
:100B1000C7068AE0FE013196A6E2B2E001900D928E
:100B20008A95E1F72A960FB6F894DEBF0FBECDBFC7
:100B3000DF91CF911F910F910895EF92FF920F9344
:100B40001F93CF93DF93EC018B017A0184E00E9425
:100B50008211892B31F00C171D074CF4CE0101973F
:100B600009C0CE15DF052CF4CE01019603C0C701E4
:100B700001C0C801DF91CF911F910F91FF90EF90BD
:100B8000089581E080931302809160029091610248
:100B9000019771F447E150E060E070E08091180245
:100BA000909119020E949D0590931902809318025A
:100BB0008091600290916102029771F44BE350E0E2
:100BC00060E070E080911602909117020E949D05EE
:100BD00090931702809316028091600290916102B7
:100BE000039771F447E050E061E070E080911402F7
:100BF000909115020E949D05909315028093140216
:100C00008091600290916102049771F447E150E095
:100C100060E070E080911802909119020E949D0599
:100C20009093190280931802809160029091610262
:100C3000059771F44BE350E060E070E0809116029C
:100C4000909117020E949D059093170280931602BF
:100C50008091600290916102069771F447E050E044
:100C600061E070E080911402909115020E949D0550
:100C70009093150280931402089543E162E187E89E
:100C800092E00E94080841E068E08EE792E00E944E
:100C9000120740E067E087E792E00E94120740E019
:100CA00066E080E792E00E94120740E065E089E696
:100CB00092E00E94120740E069E082E692E00E9422
:100CC000120720E030E042EE52E065E173E08AE591
:100CD00092E00E94A60A20E030E041E854E062EB96
:100CE00070E084E592E00E94A60A27E031E048EA3D
:100CF00054E06FEB70E08EE492E00E94A60A21E0DF
:100D000031E04AE554E065EA70E088E492E00E9450
:100D1000A60A20E030E041E854E06AE273E082E4B1
:100D200092E00E94A60A20E030E048EA54E06CEC31
:100D300070E08CE392E00E94A60A27E331E04AE5E6
:100D400054E068E970E086E392E00E94A60A27E991
:100D500030E043E054E06FE970E080E392E00E940D
:100D6000A60A86E292E00E94D1066AE572E08BE173
:100D700092E00E94AE0A80E192E00C94240C80E1A3
:100D800092E00E94250C8BE192E00C94B90AFC01E0
:100D9000758364835783468331872087108211824D
:100DA00008950895FC01848195818617970761F461
:100DB000868197818417950739F4808591858217FC
:100DC000930711F481E080838181882349F0828137
:100DD0009381019693838283029711F481E080834B
:100DE0000895FC01758364830895FC01778366830D
:100DF0000895FC01718760870895FC0110821182BB
:100E00000895FC0180810895FC0181E081831082B6
:100E100013821282089521E0FC01258361E0848120
:100E20000C944C110F931F93CF93DF931F92CDB768
:100E3000DEB78C01862FF801648360E049830E944D
:100E400013114981411103C0F801158203C0C80183
:100E50000E940B07F80116828581811102C081E092
:100E6000868326E040E855E260E070E08AE593E0A2
:100E70000F90DF91CF911F910F910C94CD12CF93D2
:100E8000DF93EC018E8180FF02C0826001C08D7F04
:100E90008E838C810E9482112D8130E04E818217D9
:100EA000930711F44E7F01C041604E834E81242F81
:100EB00030E0C901959587958227932780FF02C06E
:100EC000446001C04B7F4E838E818170DF91CF9152
:100ED0000895CF93DF93EC010E943F07882329F008
:100EE0008E8182FB882780F901C080E0DF91CF915D
:100EF0000895CF93DF93EC010E943F07882399F078
:100F00008E8182FF10C00E944D10AB01BC0148834E
:100F100059836A837B832AE030E08AE593E0DF919E
:100F2000CF910C941F15DF91CF910895CF92DF924E
:100F3000EF92FF92CF93DF93EC010E944D106B0173
:100F40007C018E8180FF27C088819981AA81BB8125
:100F5000A7019601281B390B4A0B5B0BDA01C9016B
:100F6000893E9340A105B105B0F00E944D10688301
:100F700079838A839B8362ED71E08AE593E00E9426
:100F800030142AE030E0B701A6018AE593E00E9420
:100F90001F1581E001C080E0DF91CF91FF90EF90BD
:100FA000DF90CF900895FC0181818231F1F480813E
:100FB0008331D9F481E0818761E082E10E944C11A4
:100FC00061E083E10E944C118091B9008E7F809393
:100FD000B9008091B9008D7F8093B9008CE0809337
:100FE000B80085E08093BC000895118661E080819F
:100FF0000C941311FC018EED97E09683858381E0BC
:101000008483838310821182128283E08783089510
:10101000FC016183408308950F931F93CF93DF9367
:101020001F92CDB7DEB78C01262F61E0FC018181D4
:1010300029830E94131161E0F80181810E944C1103
:1010400061E0F80180810E944C1160E0F80181812B
:101050000E944C1160E0F80180810E944C112981AE
:1010600041E0F801608181810F90DF91CF911F9164
:101070000F910C94AB11CF93DF93EC0161E0898168
:101080000E94131160E089810E944C1161E0888107
:101090000E944C1161E089810E944C1160E08981BD
:1010A000DF91CF910C941311CF93DF93EC0161E0AA
:1010B00089810E94131160E088810E944C1161E0D7
:1010C00089810E944C1161E088810E944C1160E08E
:1010D00088810E944C1160E08981DF91CF910C944E
:1010E0001311CF93DF93EC0161E089810E9413110A
:1010F00060E088810E944C1160E089810E944C115F
:1011000061E088810E944C1160E088810E944C114E
:1011100060E08981DF91CF910C941311CF93DF931D
:10112000EC0160E089810E94131161E088810E94D6
:101130004C1189810E9482110197D9F360E0888166
:10114000DF91CF910C944C11FF920F931F93CF938B
:10115000DF93EC0160E089810E94131107E010E049
:10116000F12C61E088810E944C1189810E948211DA
:101170009927002E01C0880F0A94EAF7F82A81E027
:1011800090E00E94A41060E088810E944C11015000
:10119000110938F78F2DDF91CF911F910F91FF909B
:1011A00008950F931F93CF93DF931F92CDB7DEB7B0
:1011B0008C01262F61E0FC01818129830E9413119B
:1011C000298141E0F801608181810F90DF91CF9109
:1011D0001F910F910C94AB110F931F93CF93DF933B
:1011E000EC018985882309F44DC084EE8093BC000E
:1011F0008091BC0087FFFCCF80ED8093BB0084EC26
:101200008093BC008091BC0087FFFCCF1092BB0094
:1012100084EC8093BC008091BC0087FFFCCF84EEFF
:101220008093BC008091BC0087FFFCCF81ED809350
:10123000BB0084EC8093BC008091BC0087FFFCCF96
:1012400080E090E034EC3093BC002091BC0027FF9C
:10125000FCCF2091BB00FE01E80FF91F228301960D
:101260008730910581F784E88093BC008091BC00B1
:1012700087FFFCCF84E98093BC00DF91CF911F9161
:101280000F91089560EDCE010E940C08CE010E94DE
:101290008E0860E0CE010E94D108CE010E948E0827
:1012A00061EDCE010E940C08CE010E948E0800E084
:1012B00010E0CE010E94A408FE01E00FF11F82831E
:1012C000CE010630110519F00E94710802C00E947B
:1012D00054080F5F1F4F0730110559F7CE01DF91FA
:1012E000CF911F910F910C943B08EF92FF921F93A7
:1012F000CF93DF931F92CDB7DEB77C01162FFC0191
:101300008185882369F184EE8093BC008091BC00C4
:1013100087FFFCCF80ED8093BB0084EC8093BC0002
:101320008091BC0087FFFCCF1093BB0084EC8093BE
:10133000BC008091BC0087FFFCCF4093BB0084ECD5
:101340008093BC008091BC0087FFFCCF84E9809330
:10135000BC000F90DF91CF911F91FF90EF90089507
:1013600060EDC70149830E940C08C7010E948E08E6
:10137000612FC7010E94D108C7010E948E084981D0
:10138000642FC7010E94D108C7010E948E08C701BF
:101390000F90DF91CF911F91FF90EF900C943B083D
:1013A000462F2FEF260F273018F463E00C947509B1
:1013B0000895EF92FF920F931F93CF93DF931F92A5
:1013C000CDB7DEB77C01862F042F6831A0F54C33F2
:1013D00090F52C3380F51AE0612F0E945916492FA1
:1013E00030E1839F400D112462E0C70129830E94F0
:1013F0007509802F612F0E945916492FE0E18E9FB9
:10140000400D112461E0C7010E9475092981822FD6
:10141000612F0E945916492FF0E18F9F400D112432
:1014200060E0C7010F90DF91CF911F910F91FF9066
:10143000EF900C9475090F90DF91CF911F910F9150
:10144000FF90EF900895962F9695969596959E709D
:10145000292F220F220F290F862F8F70820F0895B8
:10146000962F9F7067FF09C065FB662760F9892F7B
:101470002CE0629F800D1124089560736695669537
:101480006695862F880F880F860F890F08950F9312
:101490001F93CF93DF93CDB7DEB760970FB6F89465
:1014A000DEBF0FBECDBF8C01CE0109960E94FA07A8
:1014B000C8010E94EC08F8016281C8010E94230A59
:1014C0008B87F8016381C8010E94230A8A87F8018B
:1014D0006481C8010E94300A8987F8018581888B60
:1014E0006681C8010E94230A8C87F8016781C801C0
:1014F0000E94230A8D87F8018085982F92959F700E
:101500008F70FAE09F9F800D112490E08053984FD8
:101510009F878E8788E0FE013996DE011196019043
:101520000D928A95E1F729813A814B815C816D8129
:101530007E818F81988560960FB6F894DEBF0FBECE
:10154000CDBFDF91CF911F910F910895FC01718361
:10155000608353834283358324830895FC01718320
:10156000608313821282158214821186108612867D
:101570000895CF93DF93EC018A819B810E94251708
:101580008E819F810E9425171B821A821F821E82D4
:10159000DF91CF910895AF92BF92CF92DF92EF92F9
:1015A000FF920F931F93CF93DF93EC017B016A01AE
:1015B00059016115710541F14115510529F16C8100
:1015C0007D816F5F7F4F83E0660F771F8A95E1F71C
:1015D0008A819B810E94B4179B838A832C813D81E1
:1015E000F90143E0EE0FFF1F4A95E1F7E80FF91FFD
:1015F000F182E082D382C282B582A48217830683FD
:101600002F5F3F4F3D832C83DF91CF911F910F912F
:10161000FF90EF90DF90CF90BF90AF900895CF9262
:10162000DF92EF92FF920F931F93CF93DF938C0182
:10163000EB01E881F9810480F581E02D309709F014
:101640000995EE81FF81309709F00995EA81FB81C8
:101650000190F081E02D309709F009958A819B81F6
:10166000D8018D939C930E944D10E801C884D984C1
:1016700040E050E020E030E02C153D05BCF4D801FE
:101680001696ED91FC911797E40FF51FE080F1801D
:10169000CD91DC91EC16FD0621F46087718782877D
:1016A00093872F5F3F4F405F5F4FE6CFDF91CF9132
:1016B0001F910F91FF90EF90DF90CF900895EF92E0
:1016C000FF920F931F93CF93DF93DC011A962C9117
:1016D0001A97222359F11496ED90FC90159740E04B
:1016E00050E020E030E02E153F0504F5EC01EA81E2
:1016F000FB81E40FF51F008111810990D881C02D75
:101700000C171D0771F4C481D581C617D70749F49A
:10171000BF01DF91CF911F910F91FF90EF900C943B
:101720000F0B2F5F3F4F485F5F4FDDCFDF91CF91B2
:101730001F910F91FF90EF9008958F929F92AF921B
:10174000BF92CF92DF92EF92FF920F931F93CF93AE
:10175000DF93EC01E12CF12C00E010E08885998505
:10176000081719070CF03FC0CE80DF80CE0CDF1CBD
:10177000F60120813181888199812817390769F51F
:1017800080859185A285B385892B8A2B8B2B41F48B
:101790000E944D10F60160877187828793871DC074
:1017A0000E944D10F60180849184A284B38468194C
:1017B00079098A099B0984849584A684B78468156D
:1017C00079058A059B0548F0B601CE010E940F0BF2
:1017D000F60110861186128613860F5F1F4FF0E107
:1017E000EF0EF11CBBCFDF91CF911F910F91FF90B6
:1017F000EF90DF90CF90BF90AF909F908F90089523
:10180000CF93DF93EC018A8581110AC081E08A873A
:10181000E881F9810190F081E02D309709F0099578
:10182000E881F9810280F381E02D309709F0099574
:10183000CE01DF91CF910C949D0BDC01ED91FC91D9
:101840000190F081E02D099408950895CF93C62F5B
:101850006CE370E081E992E00E94CB0D60E870E0FB
:1018600081E992E00E941D0C6C2F81E992E00E94B8
:10187000820D81E992E00E94E00D6AE070E080E074
:1018800090E0CF910C947C10CF93DF93EC0164E651
:1018900070E080E090E00E947C106AE2CE010E943D
:1018A000260C61E7CE010E94260C6CE5CE010E9459
:1018B000260C68E2CE010E94260C68E0CE010E9450
:1018C000260C6AE2CE010E94260C69E7CE010E9436
:1018D000260C65EDCE010E94260C60E7CE010E9429
:1018E000260C68E7CE010E94260C68E0CE010E941B
:1018F000260C66E0CE010E94260C6AE2CE010E9410
:10190000260C69E7CE010E94260C62E7CE010E94F8
:10191000260C60E0CE010E94260C6AEDCE010E94EA
:10192000260C60E1CE010E94260C61E8CE010E94E7
:10193000260C63E3CE010E94260C6BEDCE010E94C3
:10194000260C60E3CE010E94260C6CEDCE010E94B5
:10195000260C63E0CE010E94260C68E7CE010E94AF
:10196000260C68E2CE010E94260C6AE2CE010E949B
:10197000260C66E0CE010E94260C68E0CE010E9493
:10198000260C68E2CE010E94260C61E0CE010E9486
:10199000260C60E8CE010E94260C64E670E080E030
:1019A00090E00E947C106CE0CE01DF91CF910C940E
:1019B000260CCF93DF9300D000D0CDB7DEB71A82CC
:1019C000198220E430E03C832B83FE01E40FF11DFB
:1019D000E40FF11D2181620F60680F900F900F904E
:1019E0000F90DF91CF910C94260CCF93C62F6CE310
:1019F00070E081E992E00E94CB0D60E470E081E943
:101A000092E00E941D0C6C2F81E992E00E94820DF1
:101A100081E992E0CF910C94E00DFF920F931F9318
:101A2000CF93DF93EC018B01642F422F0E94D90CDE
:101A3000F12CF801EF0DF11D6081662329F0CE0134
:101A40000E94F50CF394F5CFDF91CF911F910F9188
:101A5000FF9008958091C10290E02091C202821B04
:101A6000910908952091C2028091C102281750F473
:101A7000E22FF0E0ED53FD4F808190E02F5F209347
:101A8000C20208958FEF9FEF0895E091C202809106
:101A9000C102E81730F4F0E0ED53FD4F808190E093
:101AA00008958FEF9FEF08950895CF92DF92EF9200
:101AB000FF920F931F93CF93DF937C01CB018A0199
:101AC00020919D02222389F0EB016B01C40ED51EEB
:101AD000CC15DD0569F06991D701ED91FC9101907C
:101AE000F081E02DC7010995F3CF642F0E943E0ECF
:101AF000C801DF91CF911F910F91FF90EF90DF9080
:101B0000CF900895CF93DF931F92CDB7DEB769834F
:101B100020919D022223D1F020919E02203240F09C
:101B200021E030E0FC013383228380E090E015C0A7
:101B300080919F02E82FF0E0E056FD4F998190835D
:101B40008F5F80939F0280939E0205C061E0CE016B
:101B500001960E943E0E81E090E00F90DF91CF91C0
:101B60000895FC011382128248EE53E060E070E0B9
:101B700044835583668377838FED91E091838083DF
:101B8000089581E080939D026093C00210929F02AD
:101B900010929E0208950C94C10D0F93062F21E020
:101BA00040919E0260EA72E08091C0020E94E70DBF
:101BB00010929F0210929E0210929D020F91089522
:101BC00061E00C94CD0D81E992E00C94B10D0F937E
:101BD000413208F04AC0909150039111FCCF92E03D
:101BE0009093500300934E039FEF9093E302109263
:101BF000280340932703FB0169E273E0DB019A2F7E
:101C0000961B941718F491919D93F9CF10924F035E
:101C100090914F03880F892B80934F0380914D0340
:101C2000813061F410924D0380914F038093BB008B
:101C30008091BC0083FDF8CF85EC01C085EE8093D8
:101C4000BC00222321F0809150038230E1F3809187
:101C5000E3028F3F61F08091E302803251F0809186
:101C6000E302803341F483E007C081E005C080E0F7
:101C700003C082E001C084E00F910895613298F4BE
:101C800020915003243089F460930503FC0187E020
:101C900093E0DC012A2F281B261718F421912D939D
:101CA000F9CF80E0089581E0089582E0089585ED00
:101CB0008093BC008091BC0084FDFCCF1092500347
:101CC000089585EC8093BC001092500308951F92F4
:101CD0000F920FB60F9211242F933F934F935F9360
:101CE0006F937F938F939F93AF93BF93EF93FF93E4
:101CF0008091B900887F803609F49EC078F58832DB
:101D000009F45DC090F4803109F456C038F488239A
:101D100009F4F5C0883009F44FC0F5C0883109F4E2
:101D20004EC0803209F45FC0EEC0803409F46AC04E
:101D300058F4803309F457C0883309F0E4C0809325
:101D4000E3020E94610EDFC0803509F44FC0883580
:101D500009F45DC0883409F0D6C0D3C0883909F4CD
:101D6000C4C0A8F4883709F467C038F4883609F489
:101D700063C0803709F460C0C6C0883809F4B5C0B4
:101D8000803909F45FC0803809F0BDC05BC0803B7A
:101D900009F483C038F4803A09F466C0883A09F43B
:101DA0007CC0B1C0803C09F4A4C0883C09F4A1C047
:101DB000883B09F487C0A7C080914F0310C0909161
:101DC000280380912703981770F5E091280381E09C
:101DD0008E0F80932803F0E0E75DFC4F80818093B5
:101DE000BB0085EC83C08093E3028BC0E0912803A5
:101DF00081E08E0F809328038091BB00F0E0E75DC7
:101E0000FC4F808390912803809127036BC0E09161
:101E1000280381E08E0F809328038091BB00F0E0BF
:101E2000E75DFC4F808380914E0381116AC081E0A1
:101E300080934D0384EA5EC083E080935003109248
:101E4000E402CFCF8091E402803208F04EC0E091EE
:101E5000E40281E08E0F8093E4028091BB00F0E009
:101E6000EB51FD4F8083BDCF0E94610E8091E40253
:101E7000803230F4E091E402F0E0EB51FD4F10824B
:101E80006091E40270E0E0914903F0914A0385EE2D
:101E900092E009951092E40236C084E080935003EA
:101EA0001092060310920503E0914B03F0914C034E
:101EB000099580910503811105C081E08093050398
:101EC00010920703E091060381E08E0F80930603D2
:101ED000F0E0E95FFC4F80818093BB0090910603A6
:101EE00080910503981708F47CCF85E88093BC00A7
:101EF0000AC085EC8093BC001092500304C010927D
:101F0000E3020E94570EFF91EF91BF91AF919F9115
:101F10008F917F916F915F914F913F912F910F9092
:101F20000FBE0F901F90189508958230E8F4E82FA7
:101F3000F0E0EE0FFF1FEA5FFE4F71836083813098
:101F400041F0809169008C7F842B80936900E89A2E
:101F5000089580916900440F551F440F551F837FDA
:101F6000842B80936900E99A08951F920F920FB60F
:101F70000F9211242F933F934F935F936F937F930F
:101F80008F939F93AF93BF93EF93FF93E0910601DD
:101F9000F09107010995FF91EF91BF91AF919F914A
:101FA0008F917F916F915F914F913F912F910F9002
:101FB0000FBE0F901F9018951F920F920FB60F92A1
:101FC00011242F933F934F935F936F937F938F933E
:101FD0009F93AF93BF93EF93FF93E0910801F0912C
:101FE00009010995FF91EF91BF91AF919F918F9159
:101FF0007F916F915F914F913F912F910F900FBE05
:102000000F901F9018951F920F920FB60F921124E8
:102010002F933F938F939F93AF93BF9380915203DE
:1020200090915303A0915403B09155033091510303
:1020300023E0230F2D3720F40196A11DB11D05C00B
:1020400026E8230F0296A11DB11D20935103809312
:10205000520390935303A0935403B093550380917C
:10206000560390915703A0915803B09159030196DC
:10207000A11DB11D8093560390935703A09358035D
:10208000B0935903BF91AF919F918F913F912F9141
:102090000F900FBE0F901F9018952FB7F894609176
:1020A00052037091530380915403909155032FBFB5
:1020B00008953FB7F8948091560390915703A091EB
:1020C0005803B091590326B5A89B05C02F3F19F0BE
:1020D0000196A11DB11D3FBF6627782F892F9A2F2A
:1020E000620F711D811D911D42E0660F771F881FD1
:1020F000991F4A95D1F70895CF92DF92EF92FF9200
:10210000CF93DF936B017C010E945910EB01C11446
:10211000D104E104F10489F00E9458160E9459107C
:102120006C1B7D0B683E734090F381E0C81AD108A8
:10213000E108F108C851DC4FEACFDF91CF91FF9061
:10214000EF90DF90CF9008958230910538F0880F9E
:10215000991F880F991F05970197F1F708957894B3
:1021600084B5826084BD84B5816084BD85B582609C
:1021700085BD85B5816085BDEEE6F0E0808181603A
:102180008083E1E8F0E0108280818260808380813A
:1021900081608083E0E8F0E0808181608083E1EB12
:1021A000F0E0808184608083E0EBF0E080818160FA
:1021B0008083EAE7F0E080818460808380818260B0
:1021C0008083808181608083808180688083109299
:1021D000C1000895833081F028F4813099F0823075
:1021E000A1F008958730A9F08830B9F08430D1F497
:1021F000809180008F7D03C0809180008F778093D5
:102200008000089584B58F7702C084B58F7D84BD2A
:1022100008958091B0008F7703C08091B0008F7DCA
:102220008093B0000895CF93DF9390E0FC01E457D2
:10223000FF4F2491FC01E056FF4F8491882349F120
:1022400090E0880F991FFC01E853FF4FA591B491CE
:1022500082549F4FFC01C591D4919FB7611108C072
:10226000F8948C91209582238C93888182230AC0D4
:10227000623051F4F8948C91322F309583238C93F3
:102280008881822B888304C0F8948C91822B8C9354
:102290009FBFDF91CF9108950F931F93CF93DF934B
:1022A0001F92CDB7DEB7282F30E0F901E858FF4F75
:1022B0008491F901E457FF4F1491F901E056FF4F63
:1022C00004910023C9F0882321F069830E94EA1059
:1022D0006981E02FF0E0EE0FFF1FE254FF4FA59160
:1022E000B4919FB7F8948C91611103C0109581232C
:1022F00001C0812B8C939FBF0F90DF91CF911F91D5
:102300000F910895CF93DF93282F30E0F901E8581B
:10231000FF4F8491F901E457FF4FD491F901E05642
:10232000FF4FC491CC2391F081110E94EA10EC2F51
:10233000F0E0EE0FFF1FEC54FF4FA591B4912C91EC
:102340002D2381E090E021F480E002C080E090E065
:10235000DF91CF910895BF92CF92DF92EF92FF92DB
:102360000F931F93CF93DF93C82ED62EB42EC7E0C2
:10237000D0E0022F10E087E0E82EF12CB1100AC067
:10238000F701EC1BFD0BB80102C075956795EA9546
:10239000E2F707C0B8010C2E02C0759567950A9444
:1023A000E2F7617077278C2D0E944C1161E08D2D32
:1023B0000E944C1160E08D2D0E944C112197F0F687
:1023C000DF91CF911F910F91FF90EF90DF90CF9011
:1023D000BF900895FC01818D228D90E0805C9F4F1D
:1023E000821B91098F7399270895FC01918D828D2D
:1023F000981731F0828DE80FF11D858D90E00895DA
:102400008FEF9FEF0895FC01918D828D981761F0F9
:10241000828DDF01A80FB11D5D968C91928D9F5F1B
:102420009F73928F90E008958FEF9FEF089587E854
:1024300093E1892B49F080E090E0892B29F00E94FC
:10244000871381110C9400000895FC01848DDF0135
:10245000A80FB11DA35ABF4F2C91848D90E0019617
:102460008F739927848FA689B7892C93A089B18906
:102470008C9180648C93938D848D981306C0028810
:10248000F389E02D80818F7D80830895CF93DF9342
:10249000EC01888D8823C9F0EA89FB89808185FD5C
:1024A00005C0A889B9898C9186FD0FC00FB607FCBD
:1024B000F5CF808185FFF2CFA889B9898C9185FFFE
:1024C000EDCFCE010E942512E7CFDF91CF91089585
:1024D000CF92DF92FF920F931F93CF93DF931F92C0
:1024E000CDB7DEB76C0181E0D60158968C93589732
:1024F0005B969C915B975C968C915C97981307C058
:102500005096ED91FC915197808185FD2EC0F6018A
:10251000038D10E00F5F1F4F0F731127F02EF60190
:10252000848DF81211C00FB607FCF9CFD601509672
:10253000ED91FC915197808185FFF1CFC6016983B0
:102540000E9425126981EBCF838DE80FF11DE35ABC
:10255000FF4F6083D6015B960C935B975296ED918B
:10256000FC915397808180620CC0D6015696ED9104
:10257000FC91579760835096ED91FC915197808123
:102580008064808381E090E00F90DF91CF911F9174
:102590000F91FF90DF90CF900895BF92CF92DF927E
:1025A000EF92FF92CF93DF93EC016A017B01B22E91
:1025B000E889F98982E08083411581EE5807610539
:1025C0007105A1F060E079E08DE390E0A70196014C
:1025D0000E946516215031094109510956954795C8
:1025E00037952795211580E1380798F0E889F98912
:1025F000108260E874E88EE190E0A70196010E94E5
:10260000651621503109410951095695479537956D
:102610002795EC85FD853083EE85FF852083188E18
:10262000EC89FD89B082EA89FB89808180618083A1
:10263000EA89FB89808188608083EA89FB898081BF
:1026400080688083EA89FB8980818F7D8083DF9128
:10265000CF91FF90EF90DF90CF90BF9008951F92A1
:102660000F920FB60F9211242F938F939F93EF9396
:10267000FF93E0916A03F0916B038081E091700316
:10268000F091710382FD12C09081809173038F5F7E
:102690008F7320917403821751F0E0917303F0E07F
:1026A000E65AFC4F958F8093730301C08081FF91A0
:1026B000EF919F918F912F910F900FBE0F901F90D0
:1026C00018951F920F920FB60F9211242F933F93DC
:1026D0004F935F936F937F938F939F93AF93BF932A
:1026E000EF93FF938AE593E00E942512FF91EF910B
:1026F000BF91AF919F918F917F916F915F914F911A
:102700003F912F910F900FBE0F901F9018958AE563
:1027100093E00E94EA1121E0892B09F420E0822F46
:10272000089510925D0310925C0388EE93E0A0E0A0
:10273000B0E080935E0390935F03A0936003B09337
:1027400061038FEE91E090935B0380935A0385ECD5
:1027500090E0909367038093660384EC90E09093FD
:1027600069038093680380EC90E090936B038093FF
:102770006A0381EC90E090936D0380936C0382EC8C
:1027800090E090936F0380936E0386EC90E09093BB
:10279000710380937003109273031092740310926C
:1027A000750310927603089508950E94AF100E9459
:1027B000D4130E94E604C7E1D2E10E94950120975C
:1027C000E1F30E941712F9CFCF92DF92EF92FF92BE
:1027D0000F931F93CF93DF937C016A01EB0100E01D
:1027E00010E00C151D0571F06991D701ED91FC9178
:1027F0000190F081E02DC7010995892B19F00F5F39
:102800001F4FEFCFC801DF91CF911F910F91FF9024
:10281000EF90DF90CF9008956115710581F0DB0195
:102820000D900020E9F7AD0141505109461B570BAF
:10283000DC01ED91FC910280F381E02D099480E0B0
:1028400090E00895DC01ED91FC91DB0114964D912F
:102850005C9115976D917C910280F381E02D099434
:102860000C940C14DC01ED91FC910190F081E02DB1
:1028700009946BEF71E00C940C140F931F93CF939A
:10288000DF93EC010E940C148C01CE010E943914DC
:10289000800F911FDF91CF911F910F9108958F921B
:1028A0009F92AF92BF92CF92DF92EF92FF920F93DF
:1028B0001F93CF93DF93CDB7DEB7A1970FB6F894F0
:1028C000DEBF0FBECDBF7C01C42EE52FCB01D22EC3
:1028D00019A221E02D1510F02AE0D22E8E010F5DF5
:1028E0001F4F8D2C912CA12CB12C6C2D7E2FA5016E
:1028F00094010E9465168C2DD29E801911240150DE
:1029000011098A3014F4805D01C0895CF80180836C
:10291000211531054105510521F0C22EE32FCA01D1
:10292000E4CFB801C7010E940C14A1960FB6F89429
:10293000DEBF0FBECDBFDF91CF911F910F91FF90F2
:10294000EF90DF90CF90BF90AF909F908F900895C1
:10295000CF92DF92EF92FF920F931F93CF93DF936B
:10296000EC016A017B012115310579F4E881F981D7
:102970000190F081E02D642FDF91CF911F910F9195
:10298000FF90EF90DF90CF9009942A303105E9F461
:1029900077FF1AC06DE20E9432148C01442755273C
:1029A000BA014C195D096E097F092AE0CE010E9427
:1029B0004F14800F911FDF91CF911F910F91FF90C6
:1029C000EF90DF90CF9008952AE0B701A601CE01E5
:1029D000DF91CF911F910F91FF90EF90DF90CF90FB
:1029E0000C944F149A01AB01662757FD6095762F22
:1029F0000C94A8140F931F93CF93DF93EC019A01CB
:102A0000AB01662757FD6095762F0E94A8148C01B4
:102A1000CE010E943914800F911FDF91CF911F9139
:102A20000F9108952115310541F4DC01ED91FC91E0
:102A30000190F081E02D642F09940C944F140F93B2
:102A40001F93CF93DF93EC010E9412158C01CE01EE
:102A50000E943914800F911FDF91CF911F910F9128
:102A60000895FC01808191810C942517CF93DF9309
:102A7000EC0188819981009711F00E942517198235
:102A800018821D821C821B821A82DF91CF910895C9
:102A90000F931F93CF93DF93EC018B016F5F7F4FF9
:102AA000888199810E94B417009731F099838883B7
:102AB0001B830A8381E001C080E0DF91CF911F91E9
:102AC0000F910895CF93DF93EC0188819981892B31
:102AD00029F08A819B818617970760F4CE010E94B6
:102AE0004815882341F08C819D81892B19F4E88158
:102AF000F981108281E0DF91CF910895EF92FF92EA
:102B00000F931F93CF93DF93EC017B018A01BA01EE
:102B10000E946215811104C0CE010E94361507C0C3
:102B20001D830C83B701888199810E948718CE018B
:102B3000DF91CF911F910F91FF90EF900895FC01CD
:102B4000118210821382128215821482611571051E
:102B500059F0FB0101900020E9F7AF014150510904
:102B6000461B570B0C947E150895CF93DF93EC0111
:102B7000FB018617970761F060817181611571050E
:102B800029F0448155810E947E1502C00E943615AD
:102B9000CE01DF91CF910895FC0111821082138242
:102BA0001282158214820C94B515CF93DF93EC0139
:102BB0006115710561F0FB0101900020E9F7AF019B
:102BC00041505109461B570B0E947E1502C00E94BE
:102BD0003615CE01DF91CF9108950F931F93CF93B8
:102BE000DF93CDB7DEB762970FB6F894DEBF0FBEA6
:102BF000CDBF8C01CB01F8011182108213821282A9
:102C00001582148250E0BE016F5F7F4F0E948E18C4
:102C1000BE016F5F7F4FC8010E94D51562960FB647
:102C2000F894DEBF0FBECDBFDF91CF911F910F9102
:102C30000895EF92FF920F931F93CF93DF93EC01D0
:102C40007B010C811D816115710511F480E016C0B6
:102C50004115510591F0040F151FB8010E9462152E
:102C60008823A1F3288139818C819D81B701820F4E
:102C7000931F0E9487181D830C8381E0DF91CF9101
:102C80001F910F91FF90EF900895CF93DF93EC0188
:102C9000FB0144815581608171810E941916811167
:102CA00003C0CE010E943615CE01DF91CF91089569
:102CB0000895991B79E004C0991F961708F0961B98
:102CC000881F7A95C9F780950895A1E21A2EAA1B4C
:102CD000BB1BFD010DC0AA1FBB1FEE1FFF1FA217CC
:102CE000B307E407F50720F0A21BB30BE40BF50BC9
:102CF000661F771F881F991F1A9469F76095709552
:102D0000809590959B01AC01BD01CF010895EE0F18
:102D1000FF1F0590F491E02D0994CF93DF9382304B
:102D2000910510F482E090E0E091F903F091FA034C
:102D300020E030E0A0E0B0E0309739F140815181EF
:102D400048175907B8F04817590771F482819381E1
:102D5000109729F013969C938E9312972CC0909302
:102D6000FA038093F90327C02115310531F042178A
:102D7000530718F0A901DB0101C0EF019A01BD0161
:102D8000DF010280F381E02DD7CF21153105F9F065
:102D9000281B390B2430310580F48A819B81611511
:102DA000710521F0FB019383828304C09093FA03A1
:102DB0008093F903FE01329644C0FE01E20FF31F37
:102DC0008193919322503109398328833AC020910D
:102DD000F7033091F803232B41F420910201309145
:102DE00003013093F8032093F70320910001309101
:102DF00001012115310541F42DB73EB74091040181
:102E000050910501241B350BE091F703F091F80375
:102E1000E217F307A0F42E1B3F0B2817390778F0B1
:102E2000AC014E5F5F4F2417350748F04E0F5F1F10
:102E30005093F8034093F7038193919302C0E0E02D
:102E4000F0E0CF01DF91CF910895CF93DF9300970A
:102E500009F487C0FC01329713821282C091F903F2
:102E6000D091FA03209781F420813181280F391FF6
:102E70008091F7039091F8038217930779F5F09307
:102E8000F803E093F7036DC0DE0120E030E0AE17F9
:102E9000BF0750F412964D915C9113979D01411517
:102EA000510509F1DA01F3CFB383A2834081518147
:102EB000840F951F8A179B0771F48D919C91119730
:102EC000840F951F02969183808312968D919C9119
:102ED0001397938382832115310529F4F093FA0324
:102EE000E093F9033EC0D9011396FC93EE93129739
:102EF0004D915D91A40FB51FEA17FB0779F480810E
:102F00009181840F951F0296D90111969C938E93FF
:102F10008281938113969C938E931297E0E0F0E068
:102F20008A819B81009719F0FE01EC01F9CFCE0157
:102F3000029628813981820F931F2091F7033091E7
:102F4000F8032817390769F4309729F41092FA0327
:102F50001092F90302C013821282D093F803C09337
:102F6000F703DF91CF910895A0E0B0E0EAEBF7E13D
:102F70000C94E818EC01CB01209719F40E948D16EF
:102F8000B8C0FE01E60FF71F9E0122503109E2177B
:102F9000F30708F4ACC0D9010D911C9111970617E5
:102FA0001707B8F00530110508F49FC0A801445078
:102FB00051094617570708F498C002501109061B1B
:102FC000170B019311936D937C93CF010E942517EA
:102FD0008CC05B01A01AB10A4E01800E911EA09117
:102FE000F903B091FA03612C712C60E070E0109746
:102FF00009F449C0A815B905C9F5ED90FC901197E1
:10300000670142E0C40ED11CCA14DB0478F1470109
:103010008A189B08640142E0C40ED11C1296BC9031
:1030200012971396AC91B5E0CB16D10440F0B28262
:10303000A38391828082D9018D939C9309C00E5FF6
:103040001F4F0E0D1F1DF90111830083EB2DFA2F69
:103050006115710531F0DB011396FC93EE93129725
:1030600044C0F093FA03E093F9033FC06D917C9163
:1030700011976616770608F43B01BD0112960D9074
:10308000BC91A02DB4CF6091F7037091F80368153F
:103090007905E9F468167906D0F440910001509161
:1030A00001014115510541F44DB75EB7609104012E
:1030B00070910501461B570BE417F507C0F4F09318
:1030C000F803E093F703F901918380830EC00E9417
:1030D0008D167C01009759F0A801BE010E947E1850
:1030E000CE010E942517C70104C0CE0102C080E0B6
:1030F00090E0CDB7DEB7EEE00C940419FB01DC01E3
:1031000002C001900D9241505040D8F70895FB0144
:10311000DC0101900D920020E1F708954532510540
:1031200020F4423010F00C949918FB011082CB016E
:103130000895BB274A3031F4992322F4BDE29095DB
:1031400081959F4F0C94A518BB27FB015527AA27F3
:10315000880F991FAA1FA41710F0A41B8395505124
:10316000B9F7A05DAA3308F0A95DA193009779F79C
:10317000B111B1931192CB010C94D418F999FECFEF
:1031800092BD81BDF89A992780B50895262FF999A7
:10319000FECF1FBA92BD81BD20BD0FB6F894FA9A3A
:1031A000F99A0FBE01960895DC01FC01672F719119
:1031B0007723E1F7329704C07C916D93708362911D
:1031C000AE17BF07C8F308952F923F924F925F92B8
:1031D0006F927F928F929F92AF92BF92CF92DF9227
:1031E000EF92FF920F931F93CF93DF93CDB7DEB78C
:1031F000CA1BDB0B0FB6F894DEBF0FBECDBF099420
:103200002A88398848885F846E847D848C849B8476
:10321000AA84B984C884DF80EE80FD800C811B8184
:10322000AA81B981CE0FD11D0FB6F894DEBF0FBEB3
:10323000CDBFED01089510E0C8EDD0E004C0FE015F
:103240000E9489162296CA3DD107C9F7F894FFCF8C
:103250000000FB038000940F940F416C61726D417C
:103260006C61726D416C61726D416C61726D004395
:103270006C6F636B53657444617900436C6F636B6F
:10328000536574486F75727300436C6F636B53655D
:10329000744D696E7574657300416C61726D536530
:1032A000744D696E7574657300616C61726D200098
:1032B0003A006C6F6E677072657373003000556E04
:1032C000004D6100446900576F00446F0056720062
:1032D0005A61005A6F00446973706C6179436C6F76
:1032E000636B0067657474696E6720616C61726DF1
:1032F0002066726F6D20656570726F6D007265611A
:10330000642000414C41524D0020202020200061CB
:103310006C61726D206F666600736E6F6F7A696E96
:1033200067006D696C6C69733A20000000000082D0
:103330000D550D2A0D320D450D540D00000000688D
:1033400012E413EA110312F51146120D0A006E6120
:0C3350006E00696E66006F7666002E004D
:00000001FF
